{
  "contractName": "Faucet",
  "abi": [
    {
      "inputs": [
        {
          "internalType": "address",
          "name": "",
          "type": "address"
        }
      ],
      "name": "funders",
      "outputs": [
        {
          "internalType": "bool",
          "name": "",
          "type": "bool"
        }
      ],
      "stateMutability": "view",
      "type": "function",
      "constant": true
    },
    {
      "inputs": [
        {
          "internalType": "uint256",
          "name": "",
          "type": "uint256"
        }
      ],
      "name": "lutFunders",
      "outputs": [
        {
          "internalType": "address",
          "name": "",
          "type": "address"
        }
      ],
      "stateMutability": "view",
      "type": "function",
      "constant": true
    },
    {
      "inputs": [],
      "name": "numOfFunders",
      "outputs": [
        {
          "internalType": "uint256",
          "name": "",
          "type": "uint256"
        }
      ],
      "stateMutability": "view",
      "type": "function",
      "constant": true
    },
    {
      "inputs": [],
      "name": "owner",
      "outputs": [
        {
          "internalType": "address",
          "name": "",
          "type": "address"
        }
      ],
      "stateMutability": "view",
      "type": "function",
      "constant": true
    },
    {
      "inputs": [],
      "name": "test5",
      "outputs": [
        {
          "internalType": "uint256",
          "name": "",
          "type": "uint256"
        }
      ],
      "stateMutability": "pure",
      "type": "function",
      "constant": true
    },
    {
      "inputs": [],
      "name": "testNum",
      "outputs": [
        {
          "internalType": "uint256",
          "name": "",
          "type": "uint256"
        }
      ],
      "stateMutability": "view",
      "type": "function",
      "constant": true
    },
    {
      "stateMutability": "payable",
      "type": "receive",
      "payable": true
    },
    {
      "inputs": [],
      "name": "emitLog",
      "outputs": [
        {
          "internalType": "bytes32",
          "name": "",
          "type": "bytes32"
        }
      ],
      "stateMutability": "pure",
      "type": "function",
      "constant": true
    },
    {
      "inputs": [],
      "name": "addFunds",
      "outputs": [],
      "stateMutability": "payable",
      "type": "function",
      "payable": true
    },
    {
      "inputs": [
        {
          "internalType": "uint256",
          "name": "withdrawAmount",
          "type": "uint256"
        }
      ],
      "name": "withdraw",
      "outputs": [],
      "stateMutability": "nonpayable",
      "type": "function"
    },
    {
      "inputs": [],
      "name": "test1",
      "outputs": [],
      "stateMutability": "nonpayable",
      "type": "function"
    },
    {
      "inputs": [],
      "name": "test2",
      "outputs": [],
      "stateMutability": "nonpayable",
      "type": "function"
    },
    {
      "inputs": [
        {
          "internalType": "uint256",
          "name": "index",
          "type": "uint256"
        }
      ],
      "name": "getFunderAtIndex",
      "outputs": [
        {
          "internalType": "address",
          "name": "",
          "type": "address"
        }
      ],
      "stateMutability": "view",
      "type": "function",
      "constant": true
    },
    {
      "inputs": [],
      "name": "getAllFunders",
      "outputs": [
        {
          "internalType": "address[]",
          "name": "",
          "type": "address[]"
        }
      ],
      "stateMutability": "view",
      "type": "function",
      "constant": true
    }
  ],
  "bytecode": "0x6080604052336000806101000a81548173ffffffffffffffffffffffffffffffffffffffff021916908373ffffffffffffffffffffffffffffffffffffffff1602179055506103e86001819055506109858061005c6000396000f3fe6080604052600436106100c65760003560e01c80636fbbb55d1161007f578063ae28f1ed11610059578063ae28f1ed14610317578063af7f2c9b14610342578063c218deca1461036d578063f42c13bf146103e8576100cd565b80636fbbb55d1461024a5780638da5cb5b146102b6578063a26759cb1461030d576100cd565b8063031b3677146100d25780631ad7be821461013b5780631f8947ea146101665780632e1a7d4d146101e157806366e41cb71461021c5780636b59084d14610233576100cd565b366100cd57005b600080fd5b3480156100de57600080fd5b50610121600480360360208110156100f557600080fd5b81019080803573ffffffffffffffffffffffffffffffffffffffff169060200190929190505050610413565b604051808215151515815260200191505060405180910390f35b34801561014757600080fd5b50610150610433565b6040518082815260200191505060405180910390f35b34801561017257600080fd5b5061019f6004803603602081101561018957600080fd5b8101908080359060200190929190505050610445565b604051808273ffffffffffffffffffffffffffffffffffffffff1673ffffffffffffffffffffffffffffffffffffffff16815260200191505060405180910390f35b3480156101ed57600080fd5b5061021a6004803603602081101561020457600080fd5b8101908080359060200190929190505050610478565b005b34801561022857600080fd5b50610231610525565b005b34801561023f57600080fd5b506102486105cc565b005b34801561025657600080fd5b5061025f610673565b6040518080602001828103825283818151815260200191508051906020019060200280838360005b838110156102a2578082015181840152602081019050610287565b505050509050019250505060405180910390f35b3480156102c257600080fd5b506102cb610749565b604051808273ffffffffffffffffffffffffffffffffffffffff1673ffffffffffffffffffffffffffffffffffffffff16815260200191505060405180910390f35b61031561076e565b005b34801561032357600080fd5b5061032c610891565b6040518082815260200191505060405180910390f35b34801561034e57600080fd5b50610357610897565b6040518082815260200191505060405180910390f35b34801561037957600080fd5b506103a66004803603602081101561039057600080fd5b810190808035906020019092919050505061089d565b604051808273ffffffffffffffffffffffffffffffffffffffff1673ffffffffffffffffffffffffffffffffffffffff16815260200191505060405180910390f35b3480156103f457600080fd5b506103fd6108da565b6040518082815260200191505060405180910390f35b60036020528060005260406000206000915054906101000a900460ff1681565b600061043d610902565b50600a905090565b60046020528060005260406000206000915054906101000a900473ffffffffffffffffffffffffffffffffffffffff1681565b8067016345785d8a00008111156104da576040517f08c379a000000000000000000000000000000000000000000000000000000000815260040180806020018281038252602381526020018061092d6023913960400191505060405180910390fd5b3373ffffffffffffffffffffffffffffffffffffffff166108fc839081150290604051600060405180830381858888f19350505050158015610520573d6000803e3d6000fd5b505050565b6000809054906101000a900473ffffffffffffffffffffffffffffffffffffffff1673ffffffffffffffffffffffffffffffffffffffff163373ffffffffffffffffffffffffffffffffffffffff16146105ca576040517f08c379a000000000000000000000000000000000000000000000000000000000815260040180806020018281038252602181526020018061090c6021913960400191505060405180910390fd5b565b6000809054906101000a900473ffffffffffffffffffffffffffffffffffffffff1673ffffffffffffffffffffffffffffffffffffffff163373ffffffffffffffffffffffffffffffffffffffff1614610671576040517f08c379a000000000000000000000000000000000000000000000000000000000815260040180806020018281038252602181526020018061090c6021913960400191505060405180910390fd5b565b6060806002546040519080825280602002602001820160405280156106a75781602001602082028038833980820191505090505b50905060008090505b600254811015610741576004600082815260200190815260200160002060009054906101000a900473ffffffffffffffffffffffffffffffffffffffff168282815181106106fa57fe5b602002602001019073ffffffffffffffffffffffffffffffffffffffff16908173ffffffffffffffffffffffffffffffffffffffff168152505080806001019150506106b0565b508091505090565b6000809054906101000a900473ffffffffffffffffffffffffffffffffffffffff1681565b600033905061077b610902565b50600360008273ffffffffffffffffffffffffffffffffffffffff1673ffffffffffffffffffffffffffffffffffffffff16815260200190815260200160002060009054906101000a900460ff1661088e576000600260008154809291906001019190505590506001600360008473ffffffffffffffffffffffffffffffffffffffff1673ffffffffffffffffffffffffffffffffffffffff16815260200190815260200160002060006101000a81548160ff021916908315150217905550816004600083815260200190815260200160002060006101000a81548173ffffffffffffffffffffffffffffffffffffffff021916908373ffffffffffffffffffffffffffffffffffffffff160217905550505b50565b60015481565b60025481565b60006004600083815260200190815260200160002060009054906101000a900473ffffffffffffffffffffffffffffffffffffffff169050919050565b60007f48656c6c6f20576f726c64000000000000000000000000000000000000000000905090565b6000606490509056fe4f6e6c79206f776e65722063616e2063616c6c20746869732066756e6374696f6e43616e6e6f74207769746864726177206d6f7265207468616e20302e31206574686572a2646970667358221220c118ed9f7123b5bdae57e8112ef581e7555dd196ba0bf43f2354fb7e8b0a79d364736f6c63430006000033",
  "source": "// SPDX-License-Identifier: MIT\r\npragma solidity >=0.4.22 <0.9.0;\r\n\r\nimport \"./Owned.sol\";\r\nimport \"./Logger.sol\";\r\nimport \"./IFaucet.sol\";\r\n\r\ncontract Faucet is Owned, Logger, IFaucet{\r\n    uint public numOfFunders;\r\n    mapping(address  => bool) public funders;\r\n    mapping(uint  => address) public lutFunders;\r\n\r\n    // constructor() public{\r\n    //     owner = msg.sender;\r\n    // }\r\n\r\n    // modifier onlyOwner {\r\n    //     require(\r\n    //         msg.sender == owner,\r\n    //         \"Only owner can call this function\"\r\n    //     );\r\n    //     _;\r\n    // }\r\n\r\n    modifier limitWithdraw(uint withdrawAmount){\r\n        require(\r\n            withdrawAmount<=100000000000000000,\r\n            \"Cannot withdraw more than 0.1 ether\"\r\n        );\r\n        _;\r\n    }\r\n\r\n\r\n    receive() external payable{}\r\n    function emitLog() public override pure returns(bytes32) {\r\n        return \"Hello World\";\r\n    }\r\n    function addFunds() override external payable {\r\n        \r\n        address funder = msg.sender;\r\n        test3();\r\n        if(!funders[funder]){\r\n            uint index = numOfFunders++;\r\n            funders[funder] = true;\r\n            lutFunders[index] = funder;\r\n        }\r\n    }\r\n\r\n    function withdraw(uint withdrawAmount) override external limitWithdraw(withdrawAmount) {\r\n        \r\n        payable(msg.sender).transfer(withdrawAmount);\r\n        \r\n        \r\n    }\r\n\r\n    function test1() external onlyOwner {\r\n        // some managing stuff that only admin should have access to\r\n    }\r\n\r\n    function test2() external onlyOwner {\r\n        // some managing stuff that only admin should have access to\r\n    }\r\n    \r\n\r\n    // function getAllFunders() external view returns (address[] memory){\r\n    //     return funders;\r\n    // }\r\n\r\n    function getFunderAtIndex(uint index) external view returns(address){\r\n        return lutFunders[index];\r\n    }\r\n\r\n    function getAllFunders() external view returns(address[] memory){\r\n        address[] memory _funders = new address[](numOfFunders);\r\n        for (uint i =0; i<numOfFunders; i++){\r\n            // _funders.push(funders[i]); this one is wrong\r\n            _funders[i] = lutFunders[i];\r\n        }\r\n        return _funders;\r\n    }\r\n\r\n}\r\n\r\n// const instance = await Faucet.deployed()\r\n// instance.addFunds({from: accounts[1], value: \"2000000000000000000\"})\r\n// instance.addFunds({from: accounts[0], value: \"2000000000000000000\"})\r\n// instance.getFunderAtIndex(0)\r\n// instance.getAllFunders()\r\n// instance.withdraw(\"500000000000000000\", {from: accounts[1]})\r\n",
  "sourcePath": "C:\\Users\\SAHIL KUMAR GUPTA\\Desktop\\blockchain\\faucet\\contracts\\FaucetContract.sol",
  "compiler": {
    "name": "solc",
    "version": "0.6.0+commit.26b70077.Emscripten.clang"
  },
  "schemaVersion": "3.4.4",
  "updatedAt": "2022-05-21T05:21:32.927Z",
  "networkType": "ethereum",
  "devdoc": {
    "methods": {}
  },
  "userdoc": {
    "methods": {}
  }
}