{
  "contractName": "Owned",
  "abi": [
    {
      "inputs": [],
      "stateMutability": "nonpayable",
      "type": "constructor"
    },
    {
      "inputs": [],
      "name": "owner",
      "outputs": [
        {
          "internalType": "address",
          "name": "",
          "type": "address"
        }
      ],
      "stateMutability": "view",
      "type": "function"
    }
  ],
  "bytecode": "0x608060405234801561001057600080fd5b50336000806101000a81548173ffffffffffffffffffffffffffffffffffffffff021916908373ffffffffffffffffffffffffffffffffffffffff16021790555060d08061005f6000396000f3fe6080604052348015600f57600080fd5b506004361060285760003560e01c80638da5cb5b14602d575b600080fd5b60336075565b604051808273ffffffffffffffffffffffffffffffffffffffff1673ffffffffffffffffffffffffffffffffffffffff16815260200191505060405180910390f35b6000809054906101000a900473ffffffffffffffffffffffffffffffffffffffff168156fea2646970667358221220e600b2e376aecad8cadd3b476251d77b24949d11b5a5365fe492aada56592ca664736f6c63430006000033",
  "source": "// SPDX-License-Identifier: MIT\r\npragma solidity >=0.4.22 <0.9.0;\r\n\r\ncontract Owned  {\r\n  address public owner;\r\n\r\n  constructor() public{\r\n    owner = msg.sender;\r\n  }\r\n\r\n  modifier onlyOwner {\r\n    require(\r\n      msg.sender == owner,\r\n      \"Only owner can call this function\"\r\n    );\r\n    _;\r\n  }\r\n}",
  "sourcePath": "C:\\Users\\SAHIL KUMAR GUPTA\\Desktop\\blockchain\\faucet\\contracts\\Owned.sol",
  "compiler": {
    "name": "solc",
    "version": "0.6.0+commit.26b70077.Emscripten.clang"
  },
  "schemaVersion": "3.4.4",
  "updatedAt": "2022-05-21T05:21:30.469Z",
  "devdoc": {
    "methods": {}
  },
  "userdoc": {
    "methods": {}
  }
}